{
	"data": {
		"bytecode": {
			"linkReferences": {},
			"object": "6080604052348015600e575f80fd5b50610c058061001c5f395ff3fe608060405234801561000f575f80fd5b5060043610610055575f3560e01c80632c469fb614610059578063af868dac14610075578063bd854bf314610091578063f84815c9146100ad578063fc431b7c146100c9575b5f80fd5b610073600480360381019061006e91906103e4565b6100e5565b005b61008f600480360381019061008a91906105a4565b610180565b005b6100ab60048036038101906100a69190610678565b6101c6565b005b6100c760048036038101906100c291906107d9565b61023f565b005b6100e360048036038101906100de919061084f565b610263565b005b88600390816100f49190610b00565b5087600490816101049190610b00565b5086600590816101149190610b00565b5085600690816101249190610b00565b5084600790816101349190610b00565b5083600890816101449190610b00565b5082600990816101549190610b00565b5081600a90816101649190610b00565b5080600b90816101749190610b00565b50505050505050505050565b83600c908161018f9190610b00565b5082600d908161019f9190610b00565b5081600e90816101af9190610b00565b5080600f90816101bf9190610b00565b5050505050565b86601090816101d59190610b00565b5085601190816101e59190610b00565b5084601290816101f59190610b00565b5083601390816102059190610b00565b5082601490816102159190610b00565b5081601590816102259190610b00565b5080601690816102359190610b00565b5050505050505050565b816017908161024e9190610b00565b50806018908161025e9190610b00565b505050565b825f90816102719190610b00565b5081600190816102819190610b00565b5080600290816102919190610b00565b50505050565b5f604051905090565b5f80fd5b5f80fd5b5f80fd5b5f80fd5b5f601f19601f8301169050919050565b7f4e487b71000000000000000000000000000000000000000000000000000000005f52604160045260245ffd5b6102f6826102b0565b810181811067ffffffffffffffff82111715610315576103146102c0565b5b80604052505050565b5f610327610297565b905061033382826102ed565b919050565b5f67ffffffffffffffff821115610352576103516102c0565b5b61035b826102b0565b9050602081019050919050565b828183375f83830152505050565b5f61038861038384610338565b61031e565b9050828152602081018484840111156103a4576103a36102ac565b5b6103af848285610368565b509392505050565b5f82601f8301126103cb576103ca6102a8565b5b81356103db848260208601610376565b91505092915050565b5f805f805f805f805f6101208a8c031215610402576104016102a0565b5b5f8a013567ffffffffffffffff81111561041f5761041e6102a4565b5b61042b8c828d016103b7565b99505060208a013567ffffffffffffffff81111561044c5761044b6102a4565b5b6104588c828d016103b7565b98505060408a013567ffffffffffffffff811115610479576104786102a4565b5b6104858c828d016103b7565b97505060608a013567ffffffffffffffff8111156104a6576104a56102a4565b5b6104b28c828d016103b7565b96505060808a013567ffffffffffffffff8111156104d3576104d26102a4565b5b6104df8c828d016103b7565b95505060a08a013567ffffffffffffffff811115610500576104ff6102a4565b5b61050c8c828d016103b7565b94505060c08a013567ffffffffffffffff81111561052d5761052c6102a4565b5b6105398c828d016103b7565b93505060e08a013567ffffffffffffffff81111561055a576105596102a4565b5b6105668c828d016103b7565b9250506101008a013567ffffffffffffffff811115610588576105876102a4565b5b6105948c828d016103b7565b9150509295985092959850929598565b5f805f80608085870312156105bc576105bb6102a0565b5b5f85013567ffffffffffffffff8111156105d9576105d86102a4565b5b6105e5878288016103b7565b945050602085013567ffffffffffffffff811115610606576106056102a4565b5b610612878288016103b7565b935050604085013567ffffffffffffffff811115610633576106326102a4565b5b61063f878288016103b7565b925050606085013567ffffffffffffffff8111156106605761065f6102a4565b5b61066c878288016103b7565b91505092959194509250565b5f805f805f805f60e0888a031215610693576106926102a0565b5b5f88013567ffffffffffffffff8111156106b0576106af6102a4565b5b6106bc8a828b016103b7565b975050602088013567ffffffffffffffff8111156106dd576106dc6102a4565b5b6106e98a828b016103b7565b965050604088013567ffffffffffffffff81111561070a576107096102a4565b5b6107168a828b016103b7565b955050606088013567ffffffffffffffff811115610737576107366102a4565b5b6107438a828b016103b7565b945050608088013567ffffffffffffffff811115610764576107636102a4565b5b6107708a828b016103b7565b93505060a088013567ffffffffffffffff811115610791576107906102a4565b5b61079d8a828b016103b7565b92505060c088013567ffffffffffffffff8111156107be576107bd6102a4565b5b6107ca8a828b016103b7565b91505092959891949750929550565b5f80604083850312156107ef576107ee6102a0565b5b5f83013567ffffffffffffffff81111561080c5761080b6102a4565b5b610818858286016103b7565b925050602083013567ffffffffffffffff811115610839576108386102a4565b5b610845858286016103b7565b9150509250929050565b5f805f60608486031215610866576108656102a0565b5b5f84013567ffffffffffffffff811115610883576108826102a4565b5b61088f868287016103b7565b935050602084013567ffffffffffffffff8111156108b0576108af6102a4565b5b6108bc868287016103b7565b925050604084013567ffffffffffffffff8111156108dd576108dc6102a4565b5b6108e9868287016103b7565b9150509250925092565b5f81519050919050565b7f4e487b71000000000000000000000000000000000000000000000000000000005f52602260045260245ffd5b5f600282049050600182168061094157607f821691505b602082108103610954576109536108fd565b5b50919050565b5f819050815f5260205f209050919050565b5f6020601f8301049050919050565b5f82821b905092915050565b5f600883026109b67fffffffffffffffffffffffffffffffffffffffffffffffffffffffffffffffff8261097b565b6109c0868361097b565b95508019841693508086168417925050509392505050565b5f819050919050565b5f819050919050565b5f610a046109ff6109fa846109d8565b6109e1565b6109d8565b9050919050565b5f819050919050565b610a1d836109ea565b610a31610a2982610a0b565b848454610987565b825550505050565b5f90565b610a45610a39565b610a50818484610a14565b505050565b5b81811015610a7357610a685f82610a3d565b600181019050610a56565b5050565b601f821115610ab857610a898161095a565b610a928461096c565b81016020851015610aa1578190505b610ab5610aad8561096c565b830182610a55565b50505b505050565b5f82821c905092915050565b5f610ad85f1984600802610abd565b1980831691505092915050565b5f610af08383610ac9565b9150826002028217905092915050565b610b09826108f3565b67ffffffffffffffff811115610b2257610b216102c0565b5b610b2c825461092a565b610b37828285610a77565b5f60209050601f831160018114610b68575f8415610b56578287015190505b610b608582610ae5565b865550610bc7565b601f198416610b768661095a565b5f5b82811015610b9d57848901518255600182019150602085019450602081019050610b78565b86831015610bba5784890151610bb6601f891682610ac9565b8355505b6001600288020188555050505b50505050505056fea2646970667358221220e403ebb950c08b28e267d71738974f551973b39f96a805e2f9a3e732fb01a6cb64736f6c634300081a0033",
			"opcodes": "PUSH1 0x80 PUSH1 0x40 MSTORE CALLVALUE DUP1 ISZERO PUSH1 0xE JUMPI PUSH0 DUP1 REVERT JUMPDEST POP PUSH2 0xC05 DUP1 PUSH2 0x1C PUSH0 CODECOPY PUSH0 RETURN INVALID PUSH1 0x80 PUSH1 0x40 MSTORE CALLVALUE DUP1 ISZERO PUSH2 0xF JUMPI PUSH0 DUP1 REVERT JUMPDEST POP PUSH1 0x4 CALLDATASIZE LT PUSH2 0x55 JUMPI PUSH0 CALLDATALOAD PUSH1 0xE0 SHR DUP1 PUSH4 0x2C469FB6 EQ PUSH2 0x59 JUMPI DUP1 PUSH4 0xAF868DAC EQ PUSH2 0x75 JUMPI DUP1 PUSH4 0xBD854BF3 EQ PUSH2 0x91 JUMPI DUP1 PUSH4 0xF84815C9 EQ PUSH2 0xAD JUMPI DUP1 PUSH4 0xFC431B7C EQ PUSH2 0xC9 JUMPI JUMPDEST PUSH0 DUP1 REVERT JUMPDEST PUSH2 0x73 PUSH1 0x4 DUP1 CALLDATASIZE SUB DUP2 ADD SWAP1 PUSH2 0x6E SWAP2 SWAP1 PUSH2 0x3E4 JUMP JUMPDEST PUSH2 0xE5 JUMP JUMPDEST STOP JUMPDEST PUSH2 0x8F PUSH1 0x4 DUP1 CALLDATASIZE SUB DUP2 ADD SWAP1 PUSH2 0x8A SWAP2 SWAP1 PUSH2 0x5A4 JUMP JUMPDEST PUSH2 0x180 JUMP JUMPDEST STOP JUMPDEST PUSH2 0xAB PUSH1 0x4 DUP1 CALLDATASIZE SUB DUP2 ADD SWAP1 PUSH2 0xA6 SWAP2 SWAP1 PUSH2 0x678 JUMP JUMPDEST PUSH2 0x1C6 JUMP JUMPDEST STOP JUMPDEST PUSH2 0xC7 PUSH1 0x4 DUP1 CALLDATASIZE SUB DUP2 ADD SWAP1 PUSH2 0xC2 SWAP2 SWAP1 PUSH2 0x7D9 JUMP JUMPDEST PUSH2 0x23F JUMP JUMPDEST STOP JUMPDEST PUSH2 0xE3 PUSH1 0x4 DUP1 CALLDATASIZE SUB DUP2 ADD SWAP1 PUSH2 0xDE SWAP2 SWAP1 PUSH2 0x84F JUMP JUMPDEST PUSH2 0x263 JUMP JUMPDEST STOP JUMPDEST DUP9 PUSH1 0x3 SWAP1 DUP2 PUSH2 0xF4 SWAP2 SWAP1 PUSH2 0xB00 JUMP JUMPDEST POP DUP8 PUSH1 0x4 SWAP1 DUP2 PUSH2 0x104 SWAP2 SWAP1 PUSH2 0xB00 JUMP JUMPDEST POP DUP7 PUSH1 0x5 SWAP1 DUP2 PUSH2 0x114 SWAP2 SWAP1 PUSH2 0xB00 JUMP JUMPDEST POP DUP6 PUSH1 0x6 SWAP1 DUP2 PUSH2 0x124 SWAP2 SWAP1 PUSH2 0xB00 JUMP JUMPDEST POP DUP5 PUSH1 0x7 SWAP1 DUP2 PUSH2 0x134 SWAP2 SWAP1 PUSH2 0xB00 JUMP JUMPDEST POP DUP4 PUSH1 0x8 SWAP1 DUP2 PUSH2 0x144 SWAP2 SWAP1 PUSH2 0xB00 JUMP JUMPDEST POP DUP3 PUSH1 0x9 SWAP1 DUP2 PUSH2 0x154 SWAP2 SWAP1 PUSH2 0xB00 JUMP JUMPDEST POP DUP2 PUSH1 0xA SWAP1 DUP2 PUSH2 0x164 SWAP2 SWAP1 PUSH2 0xB00 JUMP JUMPDEST POP DUP1 PUSH1 0xB SWAP1 DUP2 PUSH2 0x174 SWAP2 SWAP1 PUSH2 0xB00 JUMP JUMPDEST POP POP POP POP POP POP POP POP POP POP JUMP JUMPDEST DUP4 PUSH1 0xC SWAP1 DUP2 PUSH2 0x18F SWAP2 SWAP1 PUSH2 0xB00 JUMP JUMPDEST POP DUP3 PUSH1 0xD SWAP1 DUP2 PUSH2 0x19F SWAP2 SWAP1 PUSH2 0xB00 JUMP JUMPDEST POP DUP2 PUSH1 0xE SWAP1 DUP2 PUSH2 0x1AF SWAP2 SWAP1 PUSH2 0xB00 JUMP JUMPDEST POP DUP1 PUSH1 0xF SWAP1 DUP2 PUSH2 0x1BF SWAP2 SWAP1 PUSH2 0xB00 JUMP JUMPDEST POP POP POP POP POP JUMP JUMPDEST DUP7 PUSH1 0x10 SWAP1 DUP2 PUSH2 0x1D5 SWAP2 SWAP1 PUSH2 0xB00 JUMP JUMPDEST POP DUP6 PUSH1 0x11 SWAP1 DUP2 PUSH2 0x1E5 SWAP2 SWAP1 PUSH2 0xB00 JUMP JUMPDEST POP DUP5 PUSH1 0x12 SWAP1 DUP2 PUSH2 0x1F5 SWAP2 SWAP1 PUSH2 0xB00 JUMP JUMPDEST POP DUP4 PUSH1 0x13 SWAP1 DUP2 PUSH2 0x205 SWAP2 SWAP1 PUSH2 0xB00 JUMP JUMPDEST POP DUP3 PUSH1 0x14 SWAP1 DUP2 PUSH2 0x215 SWAP2 SWAP1 PUSH2 0xB00 JUMP JUMPDEST POP DUP2 PUSH1 0x15 SWAP1 DUP2 PUSH2 0x225 SWAP2 SWAP1 PUSH2 0xB00 JUMP JUMPDEST POP DUP1 PUSH1 0x16 SWAP1 DUP2 PUSH2 0x235 SWAP2 SWAP1 PUSH2 0xB00 JUMP JUMPDEST POP POP POP POP POP POP POP POP JUMP JUMPDEST DUP2 PUSH1 0x17 SWAP1 DUP2 PUSH2 0x24E SWAP2 SWAP1 PUSH2 0xB00 JUMP JUMPDEST POP DUP1 PUSH1 0x18 SWAP1 DUP2 PUSH2 0x25E SWAP2 SWAP1 PUSH2 0xB00 JUMP JUMPDEST POP POP POP JUMP JUMPDEST DUP3 PUSH0 SWAP1 DUP2 PUSH2 0x271 SWAP2 SWAP1 PUSH2 0xB00 JUMP JUMPDEST POP DUP2 PUSH1 0x1 SWAP1 DUP2 PUSH2 0x281 SWAP2 SWAP1 PUSH2 0xB00 JUMP JUMPDEST POP DUP1 PUSH1 0x2 SWAP1 DUP2 PUSH2 0x291 SWAP2 SWAP1 PUSH2 0xB00 JUMP JUMPDEST POP POP POP POP JUMP JUMPDEST PUSH0 PUSH1 0x40 MLOAD SWAP1 POP SWAP1 JUMP JUMPDEST PUSH0 DUP1 REVERT JUMPDEST PUSH0 DUP1 REVERT JUMPDEST PUSH0 DUP1 REVERT JUMPDEST PUSH0 DUP1 REVERT JUMPDEST PUSH0 PUSH1 0x1F NOT PUSH1 0x1F DUP4 ADD AND SWAP1 POP SWAP2 SWAP1 POP JUMP JUMPDEST PUSH32 0x4E487B7100000000000000000000000000000000000000000000000000000000 PUSH0 MSTORE PUSH1 0x41 PUSH1 0x4 MSTORE PUSH1 0x24 PUSH0 REVERT JUMPDEST PUSH2 0x2F6 DUP3 PUSH2 0x2B0 JUMP JUMPDEST DUP2 ADD DUP2 DUP2 LT PUSH8 0xFFFFFFFFFFFFFFFF DUP3 GT OR ISZERO PUSH2 0x315 JUMPI PUSH2 0x314 PUSH2 0x2C0 JUMP JUMPDEST JUMPDEST DUP1 PUSH1 0x40 MSTORE POP POP POP JUMP JUMPDEST PUSH0 PUSH2 0x327 PUSH2 0x297 JUMP JUMPDEST SWAP1 POP PUSH2 0x333 DUP3 DUP3 PUSH2 0x2ED JUMP JUMPDEST SWAP2 SWAP1 POP JUMP JUMPDEST PUSH0 PUSH8 0xFFFFFFFFFFFFFFFF DUP3 GT ISZERO PUSH2 0x352 JUMPI PUSH2 0x351 PUSH2 0x2C0 JUMP JUMPDEST JUMPDEST PUSH2 0x35B DUP3 PUSH2 0x2B0 JUMP JUMPDEST SWAP1 POP PUSH1 0x20 DUP2 ADD SWAP1 POP SWAP2 SWAP1 POP JUMP JUMPDEST DUP3 DUP2 DUP4 CALLDATACOPY PUSH0 DUP4 DUP4 ADD MSTORE POP POP POP JUMP JUMPDEST PUSH0 PUSH2 0x388 PUSH2 0x383 DUP5 PUSH2 0x338 JUMP JUMPDEST PUSH2 0x31E JUMP JUMPDEST SWAP1 POP DUP3 DUP2 MSTORE PUSH1 0x20 DUP2 ADD DUP5 DUP5 DUP5 ADD GT ISZERO PUSH2 0x3A4 JUMPI PUSH2 0x3A3 PUSH2 0x2AC JUMP JUMPDEST JUMPDEST PUSH2 0x3AF DUP5 DUP3 DUP6 PUSH2 0x368 JUMP JUMPDEST POP SWAP4 SWAP3 POP POP POP JUMP JUMPDEST PUSH0 DUP3 PUSH1 0x1F DUP4 ADD SLT PUSH2 0x3CB JUMPI PUSH2 0x3CA PUSH2 0x2A8 JUMP JUMPDEST JUMPDEST DUP2 CALLDATALOAD PUSH2 0x3DB DUP5 DUP3 PUSH1 0x20 DUP7 ADD PUSH2 0x376 JUMP JUMPDEST SWAP2 POP POP SWAP3 SWAP2 POP POP JUMP JUMPDEST PUSH0 DUP1 PUSH0 DUP1 PUSH0 DUP1 PUSH0 DUP1 PUSH0 PUSH2 0x120 DUP11 DUP13 SUB SLT ISZERO PUSH2 0x402 JUMPI PUSH2 0x401 PUSH2 0x2A0 JUMP JUMPDEST JUMPDEST PUSH0 DUP11 ADD CALLDATALOAD PUSH8 0xFFFFFFFFFFFFFFFF DUP2 GT ISZERO PUSH2 0x41F JUMPI PUSH2 0x41E PUSH2 0x2A4 JUMP JUMPDEST JUMPDEST PUSH2 0x42B DUP13 DUP3 DUP14 ADD PUSH2 0x3B7 JUMP JUMPDEST SWAP10 POP POP PUSH1 0x20 DUP11 ADD CALLDATALOAD PUSH8 0xFFFFFFFFFFFFFFFF DUP2 GT ISZERO PUSH2 0x44C JUMPI PUSH2 0x44B PUSH2 0x2A4 JUMP JUMPDEST JUMPDEST PUSH2 0x458 DUP13 DUP3 DUP14 ADD PUSH2 0x3B7 JUMP JUMPDEST SWAP9 POP POP PUSH1 0x40 DUP11 ADD CALLDATALOAD PUSH8 0xFFFFFFFFFFFFFFFF DUP2 GT ISZERO PUSH2 0x479 JUMPI PUSH2 0x478 PUSH2 0x2A4 JUMP JUMPDEST JUMPDEST PUSH2 0x485 DUP13 DUP3 DUP14 ADD PUSH2 0x3B7 JUMP JUMPDEST SWAP8 POP POP PUSH1 0x60 DUP11 ADD CALLDATALOAD PUSH8 0xFFFFFFFFFFFFFFFF DUP2 GT ISZERO PUSH2 0x4A6 JUMPI PUSH2 0x4A5 PUSH2 0x2A4 JUMP JUMPDEST JUMPDEST PUSH2 0x4B2 DUP13 DUP3 DUP14 ADD PUSH2 0x3B7 JUMP JUMPDEST SWAP7 POP POP PUSH1 0x80 DUP11 ADD CALLDATALOAD PUSH8 0xFFFFFFFFFFFFFFFF DUP2 GT ISZERO PUSH2 0x4D3 JUMPI PUSH2 0x4D2 PUSH2 0x2A4 JUMP JUMPDEST JUMPDEST PUSH2 0x4DF DUP13 DUP3 DUP14 ADD PUSH2 0x3B7 JUMP JUMPDEST SWAP6 POP POP PUSH1 0xA0 DUP11 ADD CALLDATALOAD PUSH8 0xFFFFFFFFFFFFFFFF DUP2 GT ISZERO PUSH2 0x500 JUMPI PUSH2 0x4FF PUSH2 0x2A4 JUMP JUMPDEST JUMPDEST PUSH2 0x50C DUP13 DUP3 DUP14 ADD PUSH2 0x3B7 JUMP JUMPDEST SWAP5 POP POP PUSH1 0xC0 DUP11 ADD CALLDATALOAD PUSH8 0xFFFFFFFFFFFFFFFF DUP2 GT ISZERO PUSH2 0x52D JUMPI PUSH2 0x52C PUSH2 0x2A4 JUMP JUMPDEST JUMPDEST PUSH2 0x539 DUP13 DUP3 DUP14 ADD PUSH2 0x3B7 JUMP JUMPDEST SWAP4 POP POP PUSH1 0xE0 DUP11 ADD CALLDATALOAD PUSH8 0xFFFFFFFFFFFFFFFF DUP2 GT ISZERO PUSH2 0x55A JUMPI PUSH2 0x559 PUSH2 0x2A4 JUMP JUMPDEST JUMPDEST PUSH2 0x566 DUP13 DUP3 DUP14 ADD PUSH2 0x3B7 JUMP JUMPDEST SWAP3 POP POP PUSH2 0x100 DUP11 ADD CALLDATALOAD PUSH8 0xFFFFFFFFFFFFFFFF DUP2 GT ISZERO PUSH2 0x588 JUMPI PUSH2 0x587 PUSH2 0x2A4 JUMP JUMPDEST JUMPDEST PUSH2 0x594 DUP13 DUP3 DUP14 ADD PUSH2 0x3B7 JUMP JUMPDEST SWAP2 POP POP SWAP3 SWAP6 SWAP9 POP SWAP3 SWAP6 SWAP9 POP SWAP3 SWAP6 SWAP9 JUMP JUMPDEST PUSH0 DUP1 PUSH0 DUP1 PUSH1 0x80 DUP6 DUP8 SUB SLT ISZERO PUSH2 0x5BC JUMPI PUSH2 0x5BB PUSH2 0x2A0 JUMP JUMPDEST JUMPDEST PUSH0 DUP6 ADD CALLDATALOAD PUSH8 0xFFFFFFFFFFFFFFFF DUP2 GT ISZERO PUSH2 0x5D9 JUMPI PUSH2 0x5D8 PUSH2 0x2A4 JUMP JUMPDEST JUMPDEST PUSH2 0x5E5 DUP8 DUP3 DUP9 ADD PUSH2 0x3B7 JUMP JUMPDEST SWAP5 POP POP PUSH1 0x20 DUP6 ADD CALLDATALOAD PUSH8 0xFFFFFFFFFFFFFFFF DUP2 GT ISZERO PUSH2 0x606 JUMPI PUSH2 0x605 PUSH2 0x2A4 JUMP JUMPDEST JUMPDEST PUSH2 0x612 DUP8 DUP3 DUP9 ADD PUSH2 0x3B7 JUMP JUMPDEST SWAP4 POP POP PUSH1 0x40 DUP6 ADD CALLDATALOAD PUSH8 0xFFFFFFFFFFFFFFFF DUP2 GT ISZERO PUSH2 0x633 JUMPI PUSH2 0x632 PUSH2 0x2A4 JUMP JUMPDEST JUMPDEST PUSH2 0x63F DUP8 DUP3 DUP9 ADD PUSH2 0x3B7 JUMP JUMPDEST SWAP3 POP POP PUSH1 0x60 DUP6 ADD CALLDATALOAD PUSH8 0xFFFFFFFFFFFFFFFF DUP2 GT ISZERO PUSH2 0x660 JUMPI PUSH2 0x65F PUSH2 0x2A4 JUMP JUMPDEST JUMPDEST PUSH2 0x66C DUP8 DUP3 DUP9 ADD PUSH2 0x3B7 JUMP JUMPDEST SWAP2 POP POP SWAP3 SWAP6 SWAP2 SWAP5 POP SWAP3 POP JUMP JUMPDEST PUSH0 DUP1 PUSH0 DUP1 PUSH0 DUP1 PUSH0 PUSH1 0xE0 DUP9 DUP11 SUB SLT ISZERO PUSH2 0x693 JUMPI PUSH2 0x692 PUSH2 0x2A0 JUMP JUMPDEST JUMPDEST PUSH0 DUP9 ADD CALLDATALOAD PUSH8 0xFFFFFFFFFFFFFFFF DUP2 GT ISZERO PUSH2 0x6B0 JUMPI PUSH2 0x6AF PUSH2 0x2A4 JUMP JUMPDEST JUMPDEST PUSH2 0x6BC DUP11 DUP3 DUP12 ADD PUSH2 0x3B7 JUMP JUMPDEST SWAP8 POP POP PUSH1 0x20 DUP9 ADD CALLDATALOAD PUSH8 0xFFFFFFFFFFFFFFFF DUP2 GT ISZERO PUSH2 0x6DD JUMPI PUSH2 0x6DC PUSH2 0x2A4 JUMP JUMPDEST JUMPDEST PUSH2 0x6E9 DUP11 DUP3 DUP12 ADD PUSH2 0x3B7 JUMP JUMPDEST SWAP7 POP POP PUSH1 0x40 DUP9 ADD CALLDATALOAD PUSH8 0xFFFFFFFFFFFFFFFF DUP2 GT ISZERO PUSH2 0x70A JUMPI PUSH2 0x709 PUSH2 0x2A4 JUMP JUMPDEST JUMPDEST PUSH2 0x716 DUP11 DUP3 DUP12 ADD PUSH2 0x3B7 JUMP JUMPDEST SWAP6 POP POP PUSH1 0x60 DUP9 ADD CALLDATALOAD PUSH8 0xFFFFFFFFFFFFFFFF DUP2 GT ISZERO PUSH2 0x737 JUMPI PUSH2 0x736 PUSH2 0x2A4 JUMP JUMPDEST JUMPDEST PUSH2 0x743 DUP11 DUP3 DUP12 ADD PUSH2 0x3B7 JUMP JUMPDEST SWAP5 POP POP PUSH1 0x80 DUP9 ADD CALLDATALOAD PUSH8 0xFFFFFFFFFFFFFFFF DUP2 GT ISZERO PUSH2 0x764 JUMPI PUSH2 0x763 PUSH2 0x2A4 JUMP JUMPDEST JUMPDEST PUSH2 0x770 DUP11 DUP3 DUP12 ADD PUSH2 0x3B7 JUMP JUMPDEST SWAP4 POP POP PUSH1 0xA0 DUP9 ADD CALLDATALOAD PUSH8 0xFFFFFFFFFFFFFFFF DUP2 GT ISZERO PUSH2 0x791 JUMPI PUSH2 0x790 PUSH2 0x2A4 JUMP JUMPDEST JUMPDEST PUSH2 0x79D DUP11 DUP3 DUP12 ADD PUSH2 0x3B7 JUMP JUMPDEST SWAP3 POP POP PUSH1 0xC0 DUP9 ADD CALLDATALOAD PUSH8 0xFFFFFFFFFFFFFFFF DUP2 GT ISZERO PUSH2 0x7BE JUMPI PUSH2 0x7BD PUSH2 0x2A4 JUMP JUMPDEST JUMPDEST PUSH2 0x7CA DUP11 DUP3 DUP12 ADD PUSH2 0x3B7 JUMP JUMPDEST SWAP2 POP POP SWAP3 SWAP6 SWAP9 SWAP2 SWAP5 SWAP8 POP SWAP3 SWAP6 POP JUMP JUMPDEST PUSH0 DUP1 PUSH1 0x40 DUP4 DUP6 SUB SLT ISZERO PUSH2 0x7EF JUMPI PUSH2 0x7EE PUSH2 0x2A0 JUMP JUMPDEST JUMPDEST PUSH0 DUP4 ADD CALLDATALOAD PUSH8 0xFFFFFFFFFFFFFFFF DUP2 GT ISZERO PUSH2 0x80C JUMPI PUSH2 0x80B PUSH2 0x2A4 JUMP JUMPDEST JUMPDEST PUSH2 0x818 DUP6 DUP3 DUP7 ADD PUSH2 0x3B7 JUMP JUMPDEST SWAP3 POP POP PUSH1 0x20 DUP4 ADD CALLDATALOAD PUSH8 0xFFFFFFFFFFFFFFFF DUP2 GT ISZERO PUSH2 0x839 JUMPI PUSH2 0x838 PUSH2 0x2A4 JUMP JUMPDEST JUMPDEST PUSH2 0x845 DUP6 DUP3 DUP7 ADD PUSH2 0x3B7 JUMP JUMPDEST SWAP2 POP POP SWAP3 POP SWAP3 SWAP1 POP JUMP JUMPDEST PUSH0 DUP1 PUSH0 PUSH1 0x60 DUP5 DUP7 SUB SLT ISZERO PUSH2 0x866 JUMPI PUSH2 0x865 PUSH2 0x2A0 JUMP JUMPDEST JUMPDEST PUSH0 DUP5 ADD CALLDATALOAD PUSH8 0xFFFFFFFFFFFFFFFF DUP2 GT ISZERO PUSH2 0x883 JUMPI PUSH2 0x882 PUSH2 0x2A4 JUMP JUMPDEST JUMPDEST PUSH2 0x88F DUP7 DUP3 DUP8 ADD PUSH2 0x3B7 JUMP JUMPDEST SWAP4 POP POP PUSH1 0x20 DUP5 ADD CALLDATALOAD PUSH8 0xFFFFFFFFFFFFFFFF DUP2 GT ISZERO PUSH2 0x8B0 JUMPI PUSH2 0x8AF PUSH2 0x2A4 JUMP JUMPDEST JUMPDEST PUSH2 0x8BC DUP7 DUP3 DUP8 ADD PUSH2 0x3B7 JUMP JUMPDEST SWAP3 POP POP PUSH1 0x40 DUP5 ADD CALLDATALOAD PUSH8 0xFFFFFFFFFFFFFFFF DUP2 GT ISZERO PUSH2 0x8DD JUMPI PUSH2 0x8DC PUSH2 0x2A4 JUMP JUMPDEST JUMPDEST PUSH2 0x8E9 DUP7 DUP3 DUP8 ADD PUSH2 0x3B7 JUMP JUMPDEST SWAP2 POP POP SWAP3 POP SWAP3 POP SWAP3 JUMP JUMPDEST PUSH0 DUP2 MLOAD SWAP1 POP SWAP2 SWAP1 POP JUMP JUMPDEST PUSH32 0x4E487B7100000000000000000000000000000000000000000000000000000000 PUSH0 MSTORE PUSH1 0x22 PUSH1 0x4 MSTORE PUSH1 0x24 PUSH0 REVERT JUMPDEST PUSH0 PUSH1 0x2 DUP3 DIV SWAP1 POP PUSH1 0x1 DUP3 AND DUP1 PUSH2 0x941 JUMPI PUSH1 0x7F DUP3 AND SWAP2 POP JUMPDEST PUSH1 0x20 DUP3 LT DUP2 SUB PUSH2 0x954 JUMPI PUSH2 0x953 PUSH2 0x8FD JUMP JUMPDEST JUMPDEST POP SWAP2 SWAP1 POP JUMP JUMPDEST PUSH0 DUP2 SWAP1 POP DUP2 PUSH0 MSTORE PUSH1 0x20 PUSH0 KECCAK256 SWAP1 POP SWAP2 SWAP1 POP JUMP JUMPDEST PUSH0 PUSH1 0x20 PUSH1 0x1F DUP4 ADD DIV SWAP1 POP SWAP2 SWAP1 POP JUMP JUMPDEST PUSH0 DUP3 DUP3 SHL SWAP1 POP SWAP3 SWAP2 POP POP JUMP JUMPDEST PUSH0 PUSH1 0x8 DUP4 MUL PUSH2 0x9B6 PUSH32 0xFFFFFFFFFFFFFFFFFFFFFFFFFFFFFFFFFFFFFFFFFFFFFFFFFFFFFFFFFFFFFFFF DUP3 PUSH2 0x97B JUMP JUMPDEST PUSH2 0x9C0 DUP7 DUP4 PUSH2 0x97B JUMP JUMPDEST SWAP6 POP DUP1 NOT DUP5 AND SWAP4 POP DUP1 DUP7 AND DUP5 OR SWAP3 POP POP POP SWAP4 SWAP3 POP POP POP JUMP JUMPDEST PUSH0 DUP2 SWAP1 POP SWAP2 SWAP1 POP JUMP JUMPDEST PUSH0 DUP2 SWAP1 POP SWAP2 SWAP1 POP JUMP JUMPDEST PUSH0 PUSH2 0xA04 PUSH2 0x9FF PUSH2 0x9FA DUP5 PUSH2 0x9D8 JUMP JUMPDEST PUSH2 0x9E1 JUMP JUMPDEST PUSH2 0x9D8 JUMP JUMPDEST SWAP1 POP SWAP2 SWAP1 POP JUMP JUMPDEST PUSH0 DUP2 SWAP1 POP SWAP2 SWAP1 POP JUMP JUMPDEST PUSH2 0xA1D DUP4 PUSH2 0x9EA JUMP JUMPDEST PUSH2 0xA31 PUSH2 0xA29 DUP3 PUSH2 0xA0B JUMP JUMPDEST DUP5 DUP5 SLOAD PUSH2 0x987 JUMP JUMPDEST DUP3 SSTORE POP POP POP POP JUMP JUMPDEST PUSH0 SWAP1 JUMP JUMPDEST PUSH2 0xA45 PUSH2 0xA39 JUMP JUMPDEST PUSH2 0xA50 DUP2 DUP5 DUP5 PUSH2 0xA14 JUMP JUMPDEST POP POP POP JUMP JUMPDEST JUMPDEST DUP2 DUP2 LT ISZERO PUSH2 0xA73 JUMPI PUSH2 0xA68 PUSH0 DUP3 PUSH2 0xA3D JUMP JUMPDEST PUSH1 0x1 DUP2 ADD SWAP1 POP PUSH2 0xA56 JUMP JUMPDEST POP POP JUMP JUMPDEST PUSH1 0x1F DUP3 GT ISZERO PUSH2 0xAB8 JUMPI PUSH2 0xA89 DUP2 PUSH2 0x95A JUMP JUMPDEST PUSH2 0xA92 DUP5 PUSH2 0x96C JUMP JUMPDEST DUP2 ADD PUSH1 0x20 DUP6 LT ISZERO PUSH2 0xAA1 JUMPI DUP2 SWAP1 POP JUMPDEST PUSH2 0xAB5 PUSH2 0xAAD DUP6 PUSH2 0x96C JUMP JUMPDEST DUP4 ADD DUP3 PUSH2 0xA55 JUMP JUMPDEST POP POP JUMPDEST POP POP POP JUMP JUMPDEST PUSH0 DUP3 DUP3 SHR SWAP1 POP SWAP3 SWAP2 POP POP JUMP JUMPDEST PUSH0 PUSH2 0xAD8 PUSH0 NOT DUP5 PUSH1 0x8 MUL PUSH2 0xABD JUMP JUMPDEST NOT DUP1 DUP4 AND SWAP2 POP POP SWAP3 SWAP2 POP POP JUMP JUMPDEST PUSH0 PUSH2 0xAF0 DUP4 DUP4 PUSH2 0xAC9 JUMP JUMPDEST SWAP2 POP DUP3 PUSH1 0x2 MUL DUP3 OR SWAP1 POP SWAP3 SWAP2 POP POP JUMP JUMPDEST PUSH2 0xB09 DUP3 PUSH2 0x8F3 JUMP JUMPDEST PUSH8 0xFFFFFFFFFFFFFFFF DUP2 GT ISZERO PUSH2 0xB22 JUMPI PUSH2 0xB21 PUSH2 0x2C0 JUMP JUMPDEST JUMPDEST PUSH2 0xB2C DUP3 SLOAD PUSH2 0x92A JUMP JUMPDEST PUSH2 0xB37 DUP3 DUP3 DUP6 PUSH2 0xA77 JUMP JUMPDEST PUSH0 PUSH1 0x20 SWAP1 POP PUSH1 0x1F DUP4 GT PUSH1 0x1 DUP2 EQ PUSH2 0xB68 JUMPI PUSH0 DUP5 ISZERO PUSH2 0xB56 JUMPI DUP3 DUP8 ADD MLOAD SWAP1 POP JUMPDEST PUSH2 0xB60 DUP6 DUP3 PUSH2 0xAE5 JUMP JUMPDEST DUP7 SSTORE POP PUSH2 0xBC7 JUMP JUMPDEST PUSH1 0x1F NOT DUP5 AND PUSH2 0xB76 DUP7 PUSH2 0x95A JUMP JUMPDEST PUSH0 JUMPDEST DUP3 DUP2 LT ISZERO PUSH2 0xB9D JUMPI DUP5 DUP10 ADD MLOAD DUP3 SSTORE PUSH1 0x1 DUP3 ADD SWAP2 POP PUSH1 0x20 DUP6 ADD SWAP5 POP PUSH1 0x20 DUP2 ADD SWAP1 POP PUSH2 0xB78 JUMP JUMPDEST DUP7 DUP4 LT ISZERO PUSH2 0xBBA JUMPI DUP5 DUP10 ADD MLOAD PUSH2 0xBB6 PUSH1 0x1F DUP10 AND DUP3 PUSH2 0xAC9 JUMP JUMPDEST DUP4 SSTORE POP JUMPDEST PUSH1 0x1 PUSH1 0x2 DUP9 MUL ADD DUP9 SSTORE POP POP POP JUMPDEST POP POP POP POP POP POP JUMP INVALID LOG2 PUSH5 0x6970667358 0x22 SLT KECCAK256 0xE4 SUB 0xEB 0xB9 POP 0xC0 DUP12 0x28 0xE2 PUSH8 0xD71738974F551973 0xB3 SWAP16 SWAP7 0xA8 SDIV 0xE2 0xF9 LOG3 0xE7 ORIGIN 0xFB ADD 0xA6 0xCB PUSH5 0x736F6C6343 STOP ADDMOD BYTE STOP CALLER "
		},
		"gasEstimates": {
			"creation": {
				"codeDepositCost": "615400",
				"executionCost": "649",
				"totalCost": "616049"
			},
			"external": {
				"submitAward(string,string)": "infinite",
				"submitBid(string,string,string,string)": "infinite",
				"submitDeposit(string,string,string,string,string,string,string,string,string)": "infinite",
				"submitOpen(string,string,string,string,string,string,string)": "infinite",
				"submitRegister(string,string,string)": "infinite"
			}
		},
		"methodIdentifiers": {
			"submitAward(string,string)": "f84815c9",
			"submitBid(string,string,string,string)": "af868dac",
			"submitDeposit(string,string,string,string,string,string,string,string,string)": "2c469fb6",
			"submitOpen(string,string,string,string,string,string,string)": "bd854bf3",
			"submitRegister(string,string,string)": "fc431b7c"
		}
	},
	"abi": [
		{
			"inputs": [
				{
					"internalType": "string",
					"name": "winningBid",
					"type": "string"
				},
				{
					"internalType": "string",
					"name": "winningProof",
					"type": "string"
				}
			],
			"name": "submitAward",
			"outputs": [],
			"stateMutability": "nonpayable",
			"type": "function"
		},
		{
			"inputs": [
				{
					"internalType": "string",
					"name": "bidCommitment",
					"type": "string"
				},
				{
					"internalType": "string",
					"name": "bidProof",
					"type": "string"
				},
				{
					"internalType": "string",
					"name": "differenceProof",
					"type": "string"
				},
				{
					"internalType": "string",
					"name": "bidSig",
					"type": "string"
				}
			],
			"name": "submitBid",
			"outputs": [],
			"stateMutability": "nonpayable",
			"type": "function"
		},
		{
			"inputs": [
				{
					"internalType": "string",
					"name": "depositCiphertext",
					"type": "string"
				},
				{
					"internalType": "string",
					"name": "depositCommitment",
					"type": "string"
				},
				{
					"internalType": "string",
					"name": "a_1_1",
					"type": "string"
				},
				{
					"internalType": "string",
					"name": "a_2_1",
					"type": "string"
				},
				{
					"internalType": "string",
					"name": "z_1_1",
					"type": "string"
				},
				{
					"internalType": "string",
					"name": "z_2_1",
					"type": "string"
				},
				{
					"internalType": "string",
					"name": "as_1",
					"type": "string"
				},
				{
					"internalType": "string",
					"name": "depositProof",
					"type": "string"
				},
				{
					"internalType": "string",
					"name": "depositSig",
					"type": "string"
				}
			],
			"name": "submitDeposit",
			"outputs": [],
			"stateMutability": "nonpayable",
			"type": "function"
		},
		{
			"inputs": [
				{
					"internalType": "string",
					"name": "bidCiphertext",
					"type": "string"
				},
				{
					"internalType": "string",
					"name": "a_1_2",
					"type": "string"
				},
				{
					"internalType": "string",
					"name": "a_2_2",
					"type": "string"
				},
				{
					"internalType": "string",
					"name": "z_1_2",
					"type": "string"
				},
				{
					"internalType": "string",
					"name": "z_2_2",
					"type": "string"
				},
				{
					"internalType": "string",
					"name": "as_2",
					"type": "string"
				},
				{
					"internalType": "string",
					"name": "openSig",
					"type": "string"
				}
			],
			"name": "submitOpen",
			"outputs": [],
			"stateMutability": "nonpayable",
			"type": "function"
		},
		{
			"inputs": [
				{
					"internalType": "string",
					"name": "pk",
					"type": "string"
				},
				{
					"internalType": "string",
					"name": "pk_proofs_g_w",
					"type": "string"
				},
				{
					"internalType": "string",
					"name": "s",
					"type": "string"
				}
			],
			"name": "submitRegister",
			"outputs": [],
			"stateMutability": "nonpayable",
			"type": "function"
		}
	]
}